{
  "contractName": "data",
  "abi": [
    {
      "inputs": [
        {
          "internalType": "uint256",
          "name": "a",
          "type": "uint256"
        },
        {
          "internalType": "uint256",
          "name": "b",
          "type": "uint256"
        },
        {
          "internalType": "uint256",
          "name": "c",
          "type": "uint256"
        }
      ],
      "name": "insertData",
      "outputs": [],
      "stateMutability": "nonpayable",
      "type": "function"
    },
    {
      "inputs": [],
      "name": "viewData",
      "outputs": [
        {
          "internalType": "uint256[]",
          "name": "",
          "type": "uint256[]"
        },
        {
          "internalType": "uint256[]",
          "name": "",
          "type": "uint256[]"
        },
        {
          "internalType": "uint256[]",
          "name": "",
          "type": "uint256[]"
        }
      ],
      "stateMutability": "view",
      "type": "function"
    }
  ],
  "bytecode": "0x608060405234801561001057600080fd5b506103d1806100206000396000f3fe608060405234801561001057600080fd5b50600436106100365760003560e01c80637ba097591461003b578063ea105f821461005b575b600080fd5b610043610077565b604051610052939291906102cb565b60405180910390f35b61007560048036038101906100709190610348565b610183565b005b6060806060600060016002828054806020026020016040519081016040528092919081815260200182805480156100cd57602002820191906000526020600020905b8154815260200190600101908083116100b9575b505050505092508180548060200260200160405190810160405280929190818152602001828054801561011f57602002820191906000526020600020905b81548152602001906001019080831161010b575b505050505091508080548060200260200160405190810160405280929190818152602001828054801561017157602002820191906000526020600020905b81548152602001906001019080831161015d575b50505050509050925092509250909192565b600083908060018154018082558091505060019003906000526020600020016000909190919091505560018290806001815401808255809150506001900390600052602060002001600090919091909150556002819080600181540180825580915050600190039060005260206000200160009091909190915055505050565b600081519050919050565b600082825260208201905092915050565b6000819050602082019050919050565b6000819050919050565b6102428161022f565b82525050565b60006102548383610239565b60208301905092915050565b6000602082019050919050565b600061027882610203565b610282818561020e565b935061028d8361021f565b8060005b838110156102be5781516102a58882610248565b97506102b083610260565b925050600181019050610291565b5085935050505092915050565b600060608201905081810360008301526102e5818661026d565b905081810360208301526102f9818561026d565b9050818103604083015261030d818461026d565b9050949350505050565b600080fd5b6103258161022f565b811461033057600080fd5b50565b6000813590506103428161031c565b92915050565b60008060006060848603121561036157610360610317565b5b600061036f86828701610333565b935050602061038086828701610333565b925050604061039186828701610333565b915050925092509256fea2646970667358221220522152c300a1893847aadec8a7155a4d9dec32b7af3250b92ccab56290ef18f164736f6c634300080f0033",
  "immutableReferences": {},
  "source": "// SPDX-License-Identifier: MIT\r\npragma solidity >=0.4.22 <0.9.0;\r\n\r\ncontract data {\r\n  \r\n  uint[] _a; // array (dynamic) - arrays\r\n  uint[] _b;\r\n  uint[] _c;\r\n\r\n  function insertData(uint a,uint b,uint c) public{\r\n    _a.push(a);\r\n    _b.push(b);\r\n    _c.push(c);\r\n  }\r\n\r\n  function viewData() public view returns(uint[] memory,uint[] memory,uint[] memory) {\r\n    return(_a,_b,_c);\r\n  }\r\n}\r\n",
  "sourcePath": "C:\\Users\\Srilahari\\Desktop\\Blockchain-System-for-Secure-data-collection-in-manets\\contracts\\data.sol",
  "compiler": {
    "name": "solc",
    "version": "0.8.15+commit.e14f2714.Emscripten.clang"
  },
  "schemaVersion": "3.4.12",
  "updatedAt": "2023-03-17T07:00:49.846Z",
  "devdoc": {
    "kind": "dev",
    "methods": {},
    "version": 1
  },
  "userdoc": {
    "kind": "user",
    "methods": {},
    "version": 1
  }
}